:1000000012C02CC02BC02AC02AC028C027C026C0BE
:1000100025C024C023C022C021C020C01FC01EC0D4
:100020001DC01CC01BC011241FBECFE5D4E0DEBF25
:10003000CDBF10E0A0E6B0E0EAE2F1E002C005903A
:100040000D92A236B107D9F710E0A2E6B0E001C0E8
:100050001D92AA36B107E1F739D065C0D1CF1F9202
:100060000F920FB60F9211242F933F934F935F93EC
:100070006F937F938F939F93AF93BF93EF93FF9370
:10008000E0916800F09169000995FF91EF91BF91AF
:10009000AF919F918F917F916F915F914F913F9120
:1000A0002F910F900FBE0F901F901895C3988EE55B
:1000B00090E090936900809368000895C39A86E564
:1000C00090E0909369008093680008958EE087BB6C
:1000D00088B3817F88BB14BA15BA88E381BB82B329
:1000E000877C82BB379880B7886080BF81E085BD00
:1000F00089B7806489BFC3989398C2989498C1982F
:10010000959884EF91E0909367008093660086E570
:1001100090E09093690080936800789494E088B3AD
:0A012000892788BBFCCFF894FFCFBD
:02012A001400BF
:00000001FF
